:020000041000EA
:10000000002000082B0100100D0000008D010010E1
:1000100000000000000000000000000000000000E0
:100020000000000000000000000000008901001036
:10003000000000000000000089010010890100108C
:100040008901001089010010890100108901001048
:100050008901001089010010890100108901001038
:100060008901001089010010890100108901001028
:100070008901001089010010890100108901001018
:100080008901001089010010890100108901001008
:1000900089010010890100108901001089010010F8
:1000A00089010010890100108901001089010010E8
:1000B00089010010890100108901001089010010D8
:1000C00010B5064C2378002B07D1054B002B02D02E
:1000D000044800E000BF0123237010BD6005000844
:1000E0000000000030100010044B10B5002B03D0AE
:1000F0000349044800E000BF10BDC04600000000F6
:1001000064050008301000100230800803D0013070
:100110000238FCD1C046C0467047EFF3108072B67B
:10012000704780F3108870477047FFF7FDFF72B685
:100130000F4C104DAC4209DA21686268A368043B99
:1001400002DBC858D050FAE70C34F3E70A490B4AEF
:100150000020521A02DD043A8850FCDC08480949A4
:100160000860BFF34F8F00F09DFD00F0BDFCFEE77F
:10017000341000104C1000106005000868070008DB
:100180000000000808ED00E0FEE7FEE700B50420EF
:100190007146084202D0EFF3098001E0EFF30880D6
:1001A000043000F027FBFEE7014B18607047C046A3
:1001B00064070008044B1B681A00AC3212881B6AE3
:1001C0005043C0187047C046640700081D4B984252
:1001D0000FD010D840282FD005D8002830D01028B4
:1001E00028D019481EE0802828D080235B00984240
:1001F000F7D1144816E0154B984214D008D8A02324
:100200001B0698421CD0124B9842EAD1A0200BE06A
:10021000104B98420AD0104B984209D00F4B98428D
:10022000DFD10F487047A420C003FBE70D48F9E772
:100230000D48F7E70D48F5E70D48F3E70D48F1E7FE
:100240000020EFE706005200FF005200010000F01E
:10025000090000A0040000F0050000F0030000F019
:100260000100520002005200030052000100500041
:10027000020050000500520010B50020FFF79AFF61
:100280000A4B1C682300B0331B68C0180368002B9E
:100290000ADB074B1868FFF799FF012263689A6031
:1002A0009A68002AFCD110BD0248FCE764070008E8
:1002B0007C050008020050000D4B10B518600028A6
:1002C00004D0FE235B42038000234380094B1B685C
:1002D0001A004C321278002A08D04D331B78002BBC
:1002E00004D002220449002000F0E0F810BDC0460E
:1002F0008C050008640700084D01000810B502488D
:10030000FFF7DAFF10BDC04620050008064B1B684A
:10031000B0331B68C3181B68002B03DA89B2416035
:10032000002070470148FCE76407000801008A00CC
:100330000368002B04DA89B2C26081600020704734
:100340000048FCE701008A00064B1B68B0331B68BD
:10035000C3181B68002B03DAC36800200B607047CA
:100360000148FCE76407000801008A00024B1A6894
:10037000002A00D11860704790050008F0B52C24C1
:100380006043154C1F0024681D0A2018FF242540D7
:100390002740124C1B0C26680760346A4560836056
:1003A000AC36368877433F1907612F0080376D01DF
:1003B0007F01E71964190A4D47611F043B43641923
:1003C000236000238361059BC2610162002B01D081
:1003D0001B888381F0BDC0469005000864070008B3
:1003E00008100000F0B5836885B002AD2B80154B76
:1003F00002681B68066A9B8E476A9B18AB7043684D
:100400000095826AC16A040003930369C068FFF71C
:10041000B5FF00213B000A0000913000FFF7AEFF5E
:10042000216B280000F09AF90022AB5E002B06DB5E
:100430001F2213401E3A9A401300034A136005B06E
:10044000F0BDC0466407000800E100E0F7B52C25C8
:10045000134C684326686943341825690193711861
:10046000002D19D08869002818D12E68002E15DAC1
:100470006768012426004B689E40B44613689EB20C
:1004800063461B041E431660EA608C61BC40019BFE
:10049000A4B24B62AC60FEBD0248FCE70248FAE73A
:1004A0009005000804028A0007028A002C234343B7
:1004B00006480068C018C369934204D9036A002043
:1004C0009200D15070470248FCE7C04690050008F2
:1004D0000A028A0073B5002642690400D5680196B5
:1004E0002B0CB34221D01B0413601368194B006915
:1004F0001B68B0331B68C3181B68B34215DA01A927
:10050000FFF722FFB0420CD10198E26903681E0C8C
:10051000DBB29A4205D9226A9B009B58002B00D07F
:10052000984731002069FFF7F1FEADB2002D09D0E8
:1005300063691D6000251B68636AAB4205D098475C
:100540006562A56163691B6873BDA36A002BF8D05F
:100550009847F6E7640700082C2310B54343034A85
:100560001068C018FFF7B6FF10BDC0469005000820
:10057000F8B5194B0F001B681A002E321278824210
:1005800027D9002925D01F250A68154021D1190037
:10059000AC310C88114E60431C6AD2080419290042
:1005A0007868346000F0B4FC29002000FFF7AEFE4C
:1005B0003A0029003068FFF7BBFE041E07D1010096
:1005C0003068FFF7A3FE03002000002B00D0044892
:1005D000F8BD0448FCE7C04664070008940500081D
:1005E00001018A0003018A0010B5002A0DD10029FB
:1005F00014D10B4B1A681300AC331B885843136A91
:10060000C018084B1860080010BD002906D0064B22
:10061000196019005A60FFF7ABFFF5E70348F3E7ED
:1006200064070008940500082405000803018A00F7
:10063000F7B5184F04003B680191DE6833688342C8
:1006400026D90025A94202D1FFF767FD05003868C9
:100650000368002B1ADA1F22012322409340640909
:100660007268A4001419226813420DD09A432260C4
:1006700000240021FFF74AFE019B002B02D1280035
:10068000FFF74FFD2000FEBD034CF2E7034CF3E7FC
:10069000034CF7E794050008020188000301880075
:1006A00004018A000A4B1B68DB681A6882420DD974
:1006B00059681F23420918401E3B8340920050583E
:1006C0001840431E9841034BC01870470248FCE78E
:1006D000940500080001880004018A00144B30B51D
:1006E0001A680724130028331B781F2B15D883089A
:1006F0001D00A5432C1E0FD103342040A040814093
:1007000012689B002032D3180A00FF2181401C6828
:10071000624011406140196030BD802320401B06BB
:10072000184380239B011268C91889008850F3E799
:1007300064070008064B9A680300064810339B00C4
:10074000824202D1985899507047034AD058FBE72B
:1007500000ED00E00000000800000010F8B5060001
:100760000D0000283AD00023C05E002828DBB178B5
:10077000FFF7B4FF0024FF22032794460023F05E16
:10078000716883B21F40FF006646BA40890131405C
:10079000D243B940002815DB114E83089B009B19FA
:1007A000C026B6009F593A40114399510D4B9A68A3
:1007B0000D4B9A4202D12900FFF7BCFF2000F8BD83
:1007C0000A4CD8E70F263340083B064E9B089B0097
:1007D0009B19DE6932401143D961E7E7034CEDE72D
:1007E00000E100E000ED00E000000008010056001C
:1007F000FEE7000002680A4B10B51A6042685A60B2
:1008000082689A60C268DA6002691A6142695A6154
:1008100082699A61C269DA61FFF7EAFF10BDC046DA
:1008200040050008B0235B055A782120002A01D03A
:100830005878C0B27047B0235B059A89002A02D06D
:10084000988980B2704780204000FBE77FB5274B36
:1008500086000D00F458042901D0012927D1002079
:100860000FE0A3682B420BD1E36829001A685B688C
:1008700002920193039302A8236898471C4B1C60C3
:100880006469002C0BD01B4B9842EAD1012DE8D1B2
:10089000174B18481A68184B9A5104B070BD012DB7
:1008A000FBD1144B9842F3D0134B9C51F5E702292E
:1008B00006D10F4B1B68181EEFD01C6903E01C000B
:1008C0006369002BFBD10020002CE6D0A3682B42EB
:1008D00009D1E36829001A685B68029201930393C7
:1008E00002A8236898472469EEE7C046D0050008AF
:1008F000CC050008FF004200B8050008F2220E4BAC
:10090000D2011B68DB689A580260F022D2019A5823
:1009100042600A4A9A588260094A9A58C260094A53
:100920009A580261084A9A584261084A9A58826164
:10093000074A9B58C36170476407000804780000A9
:10094000087800000C78000010780000147800008F
:1009500018780000F0220E4B41681B68D201DB685A
:10096000995081680B4A9950C1680B4A99500169A6
:100970000A4A995041690A4A99508169094A99502D
:10098000C169094A99500168E83299507047C046D8
:100990006407000804780000087800000C78000064
:1009A000107800001478000018780000F7B53F4D6B
:1009B00007006B68002B4AD1FFF7AFFB6B68019013
:1009C000002B56D13A4E33681A0041321278002A71
:1009D00007D09B68E0331B68DB0602D53548FFF77C
:1009E0008DFFFFF728FF80235B00984246D1380037
:1009F00000F0A2FA002433681A0041321278002A6B
:100A000017D0002815D09B68E0331B68DB0610D593
:100A1000FFF708FF274B212808D032681300AC33BA
:100A2000198807234B43126A9B18DB681800FFF7ED
:100A300091FF0198FFF775FB002C0ED16B68002B1E
:100A400003D008210120FFF701FF2000FEBD012196
:100A50000800FFF7FBFE041EAED06B68002B03D02E
:100A600002210120FFF7F2FE134B9C42EDD0134C04
:100A7000EBE704210120FFF7E9FEA3E7326813004A
:100A8000B0331B68126A9B181B68002B0BDB042316
:100A90000B4A11690B431361012F02D030BF0020B4
:100AA000A8E720BFFBE70020034CA4E7D00500081F
:100AB000640700089805000805004200FF00420096
:100AC00000ED00E0C0228020064952008B58C0058E
:100AD0009B009B0803438B50802388581B060343CD
:100AE0008B5070470000264010B562B6034800F0F6
:100AF00059F90020FFF75AFFFBE7C046002000101D
:100B000010B50020FFF728FD10BD7047F8B5E023B1
:100B1000524C9B00E2580F23D0211A4093008900C9
:100B20001B19585807210840032860D0042861D0B9
:100B3000414248414A49404208404A494018002A37
:100B400067D1B223B1220321DB00D200E558A358BC
:100B5000A6581B0F360F0B400E4204D0A258120F9E
:100B60000A40012A01D1EA0701D4032B11D1B02395
:100B70003D4ADB00E658A158E558C904C90C00F00D
:100B80003BF9B3039B0B5843E901C90F013100F056
:100B900033F9E0239B00E3589B069B0FD840334B6F
:100BA0001860334B1C691969240A090E013100F0E1
:100BB00023F9304BE1B21860013100F01DF92E4BE2
:100BC000040018602D4B2E4918602E4BC01800F001
:100BD00013F9FA212C4B890018702C4BE01800F007
:100BE0000BF92B4B18602B4BC0031860F8BD2A493A
:100BF0000868A4E7C0211F20890059580140112925
:100C000001D0132902D18020000298E7FA20C00108
:100C100095E7013A012ABCD80327204A9E58204A6A
:100C200099589D58090F2D0F39403D4204D09D58C9
:100C30002D0F3D40012D01D1F50701D40329A8D185
:100C40009E5899589D587F2333401F26090A3140EA
:100C5000584300F0D1F8290C314098E700002640B5
:100C600000DC0BFF00366E0184050000C8000008A0
:100C700000002140CC000008C0000008D40000089B
:100C800040420F003F420F00DC000008E703000075
:100C9000D8000008D0000008C40000083C0600008E
:100CA000FC05000010B52448FFF77EFAB022E021D1
:100CB0003020224CD200A35889005B005B08A3506F
:100CC00063588343635080235B04A3501C4B1D4A2D
:100CD000E250A02204339201E250FF221A4BE2506C
:100CE000FFF7F0FEC02201215200A3588B43A3500E
:100CF000FFF70BFFFFF70AFFB0235B055A78002AC6
:100D000002D05B78212B03D10022104BDA605A60AD
:100D10000F4A80210320FFF767FC0E48FFF726FBF0
:100D20000D4B1B684D331B78002B02D00B48FFF78F
:100D300059FBFFF7E3FA10BD480F001000002640F2
:100D400084050000010002008C050000E000234043
:100D50002C050008E405000864070008FC0F0010DB
:100D6000024BD86F032318407047C046040021404F
:100D700010B5FFF7D2F90749074ACB6F1A40074B66
:100D80001343CB67102306490A681A42FCD0FFF7C9
:100D9000C8F910BD04002140FCFF00000100FA0565
:100DA0008800214070B50F4C0600FFF7B6F9E36FDD
:100DB0000500DB439B0701D1FFF7DAFFB0230A4AA6
:100DC0009B00D650E36F094A09491A40094B134367
:100DD000E36710230A681A42FCD02800FFF7A1F944
:100DE00070BDC0460400214000002140FCFF00000F
:100DF000880021400300FA05002243088B4274D387
:100E000003098B425FD3030A8B4244D3030B8B420B
:100E100028D3030C8B420DD3FF22090212BA030C14
:100E20008B4202D31212090265D0030B8B4219D3F5
:100E300000E0090AC30B8B4201D3CB03C01A524115
:100E4000830B8B4201D38B03C01A5241430B8B425D
:100E500001D34B03C01A5241030B8B4201D30B0346
:100E6000C01A5241C30A8B4201D3CB02C01A52416D
:100E7000830A8B4201D38B02C01A5241430A8B4230
:100E800001D34B02C01A5241030A8B4201D30B0219
:100E9000C01A5241CDD2C3098B4201D3CB01C01A33
:100EA000524183098B4201D38B01C01A524143093D
:100EB0008B4201D34B01C01A524103098B4201D32B
:100EC0000B01C01A5241C3088B4201D3CB00C01A98
:100ED000524183088B4201D38B00C01A5241430810
:100EE0008B4201D34B00C01A5241411A00D2014635
:100EF000524110467047FFE701B5002000F006F8A8
:100F000002BDC0460029F7D076E770477047C0465B
:100F100003001218934200D1704719700133F9E7AA
:100F2000F8B5C046F8BC08BC9E467047F8B5C04648
:100F3000F8BC08BC9E46704701B40248844601BC18
:100F4000604700BFA90200080000214000002540C2
:100F50000000014000003440000024400000314007
:100F60000000324000001F410000234000001140FB
:100F700010101010101010101010800019005500E3
:100F8000F0000501053B04101C0101000FC000002A
:100F90000004000001010101011D3A577896000884
:100FA0002000101208000000001F00000010000FB9
:100FB000002000023F06080E00080009000A000B8E
:100FC00024282C30340000001000000090000000A5
:100FD00088000000080000008000000004F000000D
:100FE00000F00000400200002005A000D001000138
:100FF0008001A0012000000010000000030000009C
:101000000100000001000000000000000503600076
:1010100004000000010000000000000001000000CA
:10102000060460000800000044070008010B0010DF
:10103000000000000000001000000008C0000000D8
:1010400054100010C0000008600400006005000893
:101050000802000000093D000048E80100127A0083
:1010600000093D000000D00700093D00A00F00006E
:1010700004000000E9000010C100001080B230B58B
:10108000C00020D0104B07221C682300AC331B8803
:101090005A43236AD31819680029FCDA3E210B4B06
:1010A000062519600A4B0B491960A3210A4BC90098
:1010B0005D500A4958505858206A12180020506054
:1010C0005A58002AFCDA30BD6407000804012640A3
:1010D000080126401E1F0000000026401C050000DD
:1010E00010B54378FF2B11D100F0CCF90400032098
:1010F00000F0A8F9C3685A68012311681943116008
:1011000011681942FCD1200000F0ACF910BDF7B510
:1011100000900020019100F095F93F4D06002B68EA
:101120001A004C33B03214681B780419002B5AD0C3
:1011300000F070F9070003281BD000F0A3F9374A2C
:10114000374B0500D358002B3EDA364A01213000D8
:1011500000F0A8F9002837D10198FFF78FFF009B16
:10116000002B3ED02368002BFCDB00F063F9040069
:101170002BE0062000F066F92B68B0331B68C0181E
:101180000368002B02DA284C2000FEBD002000F08E
:1011900081F9264B9842F6D00023254A190012689F
:1011A000012000F03FF90025A842ECD1002000F01A
:1011B00071F91E4A1F4B904203D09D42E3D0013586
:1011C000F4E79D42B9D1DEE7174C032F05D1012189
:1011D000002000F04FF90028F9D1280000F042F972
:1011E000D2E7154CF1E700F04DF90E4A0500012158
:1011F000300000F057F9002809D1009B002B08D0DF
:101200002368002BFCDB00F015F90400E5E7064C31
:10121000E3E7094CE1E7C046640700080000264008
:101220001C0500007C050008050052000101880033
:101230008C050008F049020001005000F0B56B4D2C
:1012400007242B6885B01A000390AC3212885443EF
:101250001A6A5B68A21801920293019B1B68002B1B
:10126000FBDA00F0F7F82A681300AC33198807237B
:101270004B43212800D08CE0116A5B180221D8680A
:101280000143D960D968C9072BD515001600D96864
:1012900001CD0836F46F8C46E96F41180019FF2420
:1012A0000F6824043F02274064460068A4B2000A85
:1012B0000006274307439020DF600B684C4F000176
:1012C0003B4003430B601368F16F5B1819680F40D4
:1012D000384318601368EA6F9A181268F26F9B1807
:1012E0001B68424D2A681300AC33198807234B430F
:1012F000126A9B1800225A6004233E4A11690B436C
:101300001361039B012B49D030BF019B1B68002B4D
:10131000FBDA00F09FF8212842D1296807220B0050
:101320000124AC331B8800205A430B6AD318DD68B4
:1013300025421BD0081D0D68C06F2D4E281805686A
:10134000DB6835401B0C1B061B0C2B4303600B009A
:101350000833D86F0B6818180B6A0568D318DB6858
:101360002E401B0E1B023343036020000B6A022138
:10137000D218D3688B43D3601C4B1A681300AC336C
:10138000198807234B43126A9B1800225A6005B044
:10139000F0BD126A9B18184ADA60A2E720BFB4E7D2
:1013A0000020029BFC331B698342E5D1A320134B31
:1013B0001349144A144FC0000E681D5814680F607A
:1013C00006271F503E20106010483E371F501F5800
:1013D000002FFCDA02980E4FFC3007610E60A3214B
:1013E000C9005D5001201460C6E7C04664070008CC
:1013F000FF00FFFF00ED00E0980500080000264018
:1014000008012640040126401E1F00001C050000A4
:10141000AAAAAAAA01B40248844601BC604700BF38
:10142000610D001001B40248844601BC604700BF52
:101430004D04001001B40248844601BC604700BF5F
:101440007902001001B40248844601BC604700BF25
:10145000B501001001B40248844601BC604700BFDA
:101460002508001001B40248844601BC604700BF53
:101470002301001001B40248844601BC604700BF4C
:101480003106001001B40248844601BC604700BF29
:101490001B01001001B40248844601BC604700BF34
:1014A000A506001001B40248844601BC604700BF95
:1014B00031030010000000000000000000000000E8
:1014C000000000000000000000000000000000001C
:1020000000780408D12200100D00000045230010C4
:102010004523001045230010452300100000000058
:1020200000000000000000000000000081310010EE
:102030004123001000000000213200108532001002
:1020400041230010412300104123001041230010C0
:1020500041230010412300104123001041230010B0
:1020600041230010412300104123001041230010A0
:102070004123001041230010412300104123001090
:1022800041230010412300104123001010B5054CDC
:10229000237833B9044B13B10448AFF30080012312
:1022A000237010BD9C2A00080000000038C00010F8
:1022B00008B5034B1BB103490348AFF3008008BDC9
:1022C00000000000A02A000838C0001070477047C6
:1022D000FFF7FCFF72B6144C144DAC4209DA2168CA
:1022E0006268A368043BA2BFC858D050FAE70C3418
:1022F000F3E70F490F4A00209142BCBF41F8040B9D
:10230000FAE70D480D490860BFF34F8F00F06EFDEE
:1023100000F048FDFFF7DBFF06F09EFC05F06CFEC9
:1023200006F086FCFEE7000044C000105CC0001010
:102330009C2A0008F45700080020000808ED00E07F
:10234000FEE7FEE700B504207146084202D0EFF335
:10235000098001E0EFF30880043005F021FAFEE780
:102360000230800803D001300238FCD100BF00BF2A
:102370007047EFF3108072B6704780F31088704793
:1023800072B601BE7047000000B583B0002202A9FA
:1023900001F8012D13460848006801F00FFA38B122
:1023A000064B4FF080521A60BFF34F8FBFF36F8F11
:1023B00003B05DF804FB00BF9C56000804ED00E08C
:1023C00000B585B00123062219461D4802F0BEF96A
:1023D0001C4B1B689B698022C3F884261A4B009310
:1023E000002301220A21194802F00AF80446184B7A
:1023F000186001F01DFD00230093024601212046D4
:1024000002F018F84FF4FA630393039B013B04AC0A
:1024100044F8043D0F4D0021286801F09DF8002389
:102420001A462146286801F00BF9039B013B0393F0
:1024300000231A462146286801F002F9E5E700BFAB
:1024400007000D001C57000889230010F0B500108C
:1024500098560008E857000800B583B0002202A98A
:1024600001F8012D13460848006801F0A7F938B1BA
:10247000064B4FF080521A60BFF34F8FBFF36F8F40
:1024800003B05DF804FB00BFA056000804ED00E0B7
:1024900000B585B0012306221946184802F056F906
:1024A000174B1B689B692022C3F88420154B0093AF
:1024B000002301220A21144801F0A2FF0546134B14
:1024C000186001F0B5FC0024009423460246012167
:1024D000284601F0AFFF0394039B0A3304AC44F891
:1024E000043D0B4D0021286801F036F800231A4600
:1024F0002146286801F0A4F8EEE700BF05000100BE
:102500001C57000859240010F0B50010A45600080C
:10251000EC57000808B500F0CFF800F007F800F01D
:10252000BDF800F02DF800F03FF808BD08B5124ADC
:10253000136899684FF08040C1F800049868B3F8B8
:102540007010435843F47F434350126892F86F1061
:1025500003238B4092F86C1092F86E0081400B437D
:10256000916843F00043C1F800349368D3F8003415
:10257000024802F0BDF908BD1C570008FCB5001068
:1025800008B5074802F0B4F9064B1B6893F83D20E4
:10259000332A03D99B680022C3F8CC2C08BD00BFA6
:1025A00000B600101C57000810B5264C264A002122
:1025B000204603F079F9254802F09AF9244A0121CE
:1025C000204603F071F9234802F092F9224802F004
:1025D0008FF904F54074214A0421204603F064F980
:1025E0001F4802F085F91F4A0621204603F05CF9D6
:1025F0001D4802F07DF91D4A0721204603F054F9D9
:102600001B4802F075F91B4802F072F91A4802F0F3
:102610006FF91A4802F06CF9194802F069F9194883
:1026200002F066F9184802F063F9184802F060F900
:10263000174802F05DF9174802F05AF9164802F0FF
:1026400057F910BD00003240D8B600100CB700108A
:1026500010B7001044B700102CB60010A0B6001040
:10266000D4B6001068B600109CB6001030B600104A
:1026700064B6001004B6001008B600100CB60010C6
:1026800010B6001014B6001018B600101CB60010DA
:1026900020B6001024B6001028B60010044B3322D8
:1026A00042F208015A5042F210015A50704700BFDE
:1026B00000003140FEE7000070B582B09621002096
:1026C00005F0C0F805F05EF800283BD0012005F0C9
:1026D000ADFB012005F084FA724A536C23F47F436A
:1026E00043F468535364536CC3F307233A2B46D027
:1026F0006D4B1B6893F83C2032B16C49D1F88023B4
:1027000022F03002C1F880231968D3F884208B5856
:1027100023F47F438B50644A13681868D3F8801001
:10272000435823F07F4343F0807343501368186885
:10273000D3F88010435823F47F434350136893F831
:102740003B5026E005F00EF8584BD3F8803113F0DB
:10275000010F06D1554AD2F80C3523F00043C2F8D8
:102760000C35524BD3F80C2542F00042C3F80C252F
:10277000D3F80C2542F00102C3F80C25A6E7536CF0
:1027800023F0005323F4685343F468535364AFE7D2
:10279000013DDDB16C1E444B1B6893F83B309C42FD
:1027A000F6D2424E05F27F1456F8243023F04053FF
:1027B00043F0005346F82430012004F0B9FF56F8E6
:1027C000243023F0004346F82430E1E700210120C3
:1027D00004F0A4FA344B1B6893F83C30002B43D030
:1027E000324BD3F8803313F00F0F43D02F4BD3F875
:1027F000882522F0405242F00052C3F88825D3F8D1
:10280000802522F00042C3F88025D3F88C2522F0E1
:102810000042C3F88C250021084604F07FFA224BC1
:102820001B6893F83C3033B1204AD2F8803323F050
:102830000F03C2F8803302F059FF1D4D00240094AD
:10284000234622462146284603F0DEF9009423461B
:1028500022460121284603F0D7F9124A136843F0B3
:1028600008031360134C2DE040F2AC71124804F0E1
:102870006BFFB5E7002004F07FFA40F21113984295
:10288000B4D1094B1B6893F83C30002BAED0074AFB
:10289000D2F8803323F00F0343F00103C2F88033F2
:1028A000A4E700BF000027401C5700080000264096
:1028B0000000324040420F0048B70010012004F0F1
:1028C00037FF013CA84B1B6913F0040F01D1002C0A
:1028D000F4D1002C00F031810023002B40F02F8137
:1028E000A24AD2F8003523F0030343F00103C2F8F3
:1028F00000359F4C23681968D3F884208B5823F443
:102900007F438B5023681968D3F880208B5823F0BD
:102910007F438B5023681968D3F880208B5823F4A9
:102920007F438B500021012004F0F8F9236893F8CD
:102930003C3043B18D4AD2F8803323F00F0343F08B
:102940000103C2F880330021084604F0E7F90021B2
:10295000022004F0E3F90021032004F0DFF9002154
:10296000042004F0DBF9834804F02CFA002840F03E
:10297000EA80814804F00EFB002840F0E8807C4BA0
:102980001B6893F83C2032B17849D1F8802322F0BB
:102990000F02C1F8802393F83C3033B1734AD2F868
:1029A000803323F03003C2F880330021012004F08B
:1029B000B5F97249012004F04FFB002840F0CB80AC
:1029C00042F21071012004F0DBFB002840F0C780C8
:1029D000674B1B6893F83C20012A08D96349D1F85A
:1029E000842322F00F0242F00102C1F8842393F8FD
:1029F0003C20012A06D95D49D1F8842322F0300217
:102A0000C1F8842393F83C30012B06D9574AD2F8F9
:102A1000843343F00043C2F88433554B1B6893F86A
:102A20003C20022A06D95149D1F8882322F00F020E
:102A3000C1F8882393F83C20022A08D94B49D1F8E1
:102A4000882322F0300242F01002C1F8882393F864
:102A50003C30022B06D9454AD2F8883343F0004374
:102A6000C2F88833424B1B6893F83C20032A08D9EC
:102A70003E49D1F88C2322F00F0242F00102C1F846
:102A80008C2393F83C20032A06D93849D1F88C23AB
:102A900022F03002C1F88C2393F83C30032B06D986
:102AA000324AD2F88C3343F00043C2F88C332F4CB7
:102AB000D4F8043523F00043C4F80435D4F80435C1
:102AC00023F4407323F00103C4F80435D4F804352B
:102AD00023F47F03C4F80435D4F8043543F00043ED
:102AE000C4F80435002005F007FA1F4A136823F4E0
:102AF00040731360D4F80C3543F00043C4F80C3530
:102B0000D4F80C3543F00103C4F80C3564210020DF
:102B100004F098FE00F062F8194801F0E9FE194847
:102B200001F0E6FE184801F0E3FE184801F0E0FE6F
:102B3000174801F0DDFE02B070BD164BCDE6052052
:102B4000FFF7B8FDCCE60420FFF7B4FD11E7042041
:102B5000FFF7B0FD13E70320FFF7ACFD30E70320DC
:102B6000FFF7A8FD34E700BF000027400000264023
:102B70001C57000874B70010400D03009CB70010EC
:102B800088B700108CB7001090B7001094B70010F1
:102B900098B7001002004A0008B5044805F044F850
:102BA00008B1002008BD0248FCE700BF8C220008E5
:102BB0000000020610B501F099FE0446FFF7AAFCDA
:102BC0000CB1204610BDFFF7E7FF0446F9E708B552
:102BD000012003F0A7FA08BD7047000030B4634B32
:102BE000D3F8802302F00F0202F1D00153F8213014
:102BF00003F00703032B1ED0042B1FD0CBB15C4B7B
:102C0000002A46D1594AD2F8900500F00100D2F8C6
:102C10008815C1F30171D2F8882512F0405F1ED0EB
:102C2000524AD2F88825C2F30172012A18D0002234
:102C300016E0504BE4E7504B1B68E1E702F1C0039C
:102C40004A4951F8233003F01F03112B04D0132BF2
:102C500002D04FF4FA43D3E74FF40043D0E7012208
:102C600002B108B9032917D1404AD2F88015C1F33F
:102C70001101D2F88405C0F30C00D2F88025C2F30C
:102C800000620132B3FBF0F301FB03F3B3FBF2F399
:102C900002E0013A012A32D9344AD2F88023C2F341
:102CA0000112D340354A1360354AD2F89010C1F36F
:102CB000072101311269120E0132B3FBF2F23148E1
:102CC0000260B3FBF1F3304A1360304A136003F53E
:102CD000742202F23F222E49A1FB0212C2F3874264
:102CE0002C490A7003F2E7332B4AA2FB03239B090A
:102CF0002A4A1360DB032A4A136030BC70471B4921
:102D000002F5C87051F8204004F0010402F5C075C6
:102D100051F82500C0F3017051F8251011F0405F03
:102D200009D02946114D55F82110C1F3017101292F
:102D300002D0002100E0012101B10CB90328ABD180
:102D40000A4C02F5C07254F8221001F07F0154F8C9
:102D50002200C0F3042054F82220C2F3044201FBF5
:102D600003F3B3FBF0F3B3FBF2F395E70000264067
:102D700000366E0100127A00AC220008B022000872
:102D800000002140B4220008A8220008BC2200084C
:102D900083DE1B43C4220008D34D6210C02200080A
:102DA000B822000808B50D4802F0AEFCFFF714FF8A
:102DB000FFF714FF00221146032003F021FA084810
:102DC00002F0F6FF074B1B6893F84D3013B902F081
:102DD00063FD08BD044803F063F8F8E780BA00100B
:102DE000C02A00081C570008A4B7001008B5FFF758
:102DF000C0FA074AD2F8883043F47003C2F888302A
:102E0000BFF34F8FBFF36F8FFFF7B7FA08BD00BF57
:102E100000ED00E000F1080343604FF0FF328260F4
:102E2000C3600361002303607047002303617047A0
:102E300043684B609A688A609A685160996008613B
:102E4000036801330360704730B40D68B5F1FF3F8C
:102E500002D000F1080202E0026904E01A46536859
:102E60001C68AC42FAD953684B6099608A60516023
:102E7000086103680133036030BC7047036942682E
:102E8000816891608268416851605A68824206D0C8
:102E9000002202611A68013A1A6018687047826855
:102EA0005A60F5E7124A12F0070F1ED0D11D21F02B
:102EB0000701C1F5205313440A460E480260002161
:102EC00041601344083B23F007030B48036059603B
:102ED0001960991A51601360084B1960084B19600A
:102EE000084B4FF000421A6070474FF42053E4E75C
:102EF000442C000850540008402C00084C54000892
:102F0000485400084454000810B4134B1A68824215
:102F10001BD359685C18844203D14068014459604E
:102F2000184641684418A24213D10C4C2468A242AE
:102F30000DD05268114441601A68126802609842CC
:102F400000D018605DF8044B70471346DEE704605C
:102F5000F5E70260F3E700BF50540008402C00087A
:102F600070B5044600F05CFF3A4B1B68BBB13A4BAE
:102F70001B681C4263D1ACB1083414F0070F11D0A8
:102F800024F00704083404F007035BB14FF03F035B
:102F900083F31188BFF36F8FBFF34F8FFEE7FFF707
:102FA00081FFE4E7002C4CD02C4B1B68A3424AD392
:102FB0002B4B1D6801E02B4615466A68A24202D2DF
:102FC0002A68002AF7D1234A1268AA423DD01E6817
:102FD00008362A681A606B681B1B102B10D9281939
:102FE00010F0070F08D04FF03F0383F31188BFF3B1
:102FF0006F8FBFF34F8FFEE743606C60FFF784FF76
:103000006A6816490B689B1A0B60164909688B425F
:1030100001D214490B60104B1B6813436B600023F3
:103020002B6000F08BFF16F0070F10D04FF03F031E
:1030300083F31188BFF36F8FBFF34F8FFEE7002636
:10304000EFE70026EDE70026EBE70026E9E730464C
:1030500070BD00BF402C00084454000848540008CC
:10306000505400084C54000880B338B50446A0F111
:10307000080550F8042C164909680A4208D14FF097
:103080003F0383F31188BFF36F8FBFF34F8FFEE7CA
:1030900050F8080C40B14FF03F0383F31188BFF3A1
:1030A0006F8FBFF34F8FFEE722EA010244F8042C32
:1030B00000F0B6FE54F8041C064A13680B44136073
:1030C0002846FFF721FF00F039FF38BD704700BFE9
:1030D000445400084854000882B0002301930D4B6B
:1030E0001B68B3F1FF3F08D04FF03F0383F3118813
:1030F000BFF36F8FBFF34F8FFEE74FF03F0383F3B4
:103100001188BFF36F8FBFF34F8F019B002BFCD053
:1031100002B07047C822000808480068006880F3C1
:1031200008884FF0000080F3148862B661B6BFF3E0
:103130004F8FBFF36F8F00DF00BF000008ED00E08E
:10314000DFF80C00016841F4700101607047000075
:1031500088ED00E04FF0807340F8043C21F001015D
:1031600040F8081C054B40F80C3C40F8202C6FF050
:10317000020340F8243C4438704700BFD9300010A7
:10318000074B19680868B0E8F04F80F30988BFF36F
:103190006F8F4FF0000080F311887047AFF300800D
:1031A000605400084FF03F0383F31188BFF36F8F23
:1031B000BFF34F8F0A4A136801331360012B00D00D
:1031C0007047084B1B6813F0FF0FF9D04FF03F0317
:1031D00083F31188BFF36F8FBFF34F8FFEE700BFFC
:1031E000C822000804ED00E0094B1B6843B94FF00A
:1031F0003F0383F31188BFF36F8FBFF34F8FFEE759
:10320000013B034A13600BB983F31188704700BF79
:10321000C8220008000000000000000000000000BC
:10322000EFF30980BFF36F8F154B1A681EF0100F74
:1032300008BF20ED108A20E9F04F10602DE9090049
:103240004FF03F0080F31188BFF34F8FBFF36F8FB4
:1032500000F0EEFE4FF0000080F3118809BC196801
:103260000868B0E8F04F1EF0100F08BFB0EC108AED
:1032700080F30988BFF36F8F704700BFAFF3008002
:103280006054000808B54FF03F0383F31188BFF383
:103290006F8FBFF34F8F00F0D1FD18B1034B4FF08C
:1032A00080521A60002383F3118808BD04ED00E00A
:1032B000084A0023136008490B60084B1B68084943
:1032C000A1FB03139B09013B06490B600723136015
:1032D000704700BF10E000E018E000E0A8220008FE
:1032E000D34D621014E000E010B582B02B4B1A7879
:1032F000D2B20192FF221A701B78DBB28DF8033034
:103300009DF8033003F03F03254A1370254B072235
:103310001A6009E0234A1368013B13609DF80330EB
:103320005B00DBB28DF803309DF8033013F0800FA3
:10333000F0D11C4B1B68042B08D04FF03F0383F3E4
:103340001188BFF36F8FBFF34F8FFEE71B0203F4AB
:10335000E063144A1360019BDBB2104A1370124BF6
:103360001A6842F47F021A601A6842F07F421A60BB
:10337000FFF79EFF00240D4B1C60FFF7E1FE0C4A97
:10338000136843F040431360FFF7C6FE00F050FEA1
:10339000FFF7A2FE204602B010BD00BF00E400E02F
:1033A000585400085C54000820ED00E0C8220008D2
:1033B00034EF00E0EFF305830F2B0FD9104A9B5C2D
:1033C000DBB2104A12789A4208D94FF03F0383F3D8
:1033D0001188BFF36F8FBFF34F8FFEE70A4B1B6857
:1033E00003F4E063094A1268934208D94FF03F039F
:1033F00083F31188BFF36F8FBFF34F8FFEE77047E2
:10340000F0E300E0585400080CED00E05C540008C4
:1034100008B54FF03F0383F31188BFF36F8FBFF3FD
:103420004F8F40F20631024804F08EF9FEE700BFEC
:10343000D8B7001010B50446FFF7B4FEA26BE36BDB
:103440009A4204D00024FFF7CFFE204610BD01248D
:10345000F9E710B50446FFF7A5FEA36B23B10024DE
:10346000FFF7C2FE204610BD0124F9E770B50446FF
:103470001646856B026CEAB166B9806805F010FCEF
:10348000226CA3681344A3606268934212D323683A
:10349000A3600FE0C06805F003FC226C5242E368B1
:1034A0001344E36021688B4202D263681A44E260ED
:1034B000022E03D00135A563002070BD002DF9D088
:1034C000013DF7E7026C72B110B5C3681344C360E5
:1034D0004468A34201D30368C3600C46C168204618
:1034E00005F0DEFB10BD704738B50546FFF75AFE04
:1034F00095F8454064B203E000F0C4FE013C64B2BC
:10350000002C08DD6B6A33B105F1240000F028FEC1
:103510000028F3D0F0E7FF2385F84530FFF764FE7D
:10352000FFF740FE95F8444064B203E000F0AAFEC5
:10353000013C64B2002C08DD2B6933B105F11000A9
:1035400000F00EFE0028F3D0F0E7FF2385F84430AA
:10355000FFF74AFE38BD000038B540B94FF03F03D1
:1035600083F31188BFF36F8FBFF34F8FFEE70446DD
:103570000D46FFF717FE2168E26B236C03FB021078
:1035800060600020A063A160013A02FB0313E360C6
:10359000FF2384F8443084F84530A5B923691BB96A
:1035A000FFF722FE012038BD04F1100000F0D8FD25
:1035B0000028F5D0084B4FF080521A60BFF34F8FB0
:1035C000BFF36F8FECE704F11000FFF723FC04F169
:1035D0002400FFF71FFCE3E704ED00E010B5029BB9
:1035E0000C4639B11A60D8631C6401211846FFF7F4
:1035F000B3FF10BD1B60F6E740B94FF03F0383F304
:103600001188BFF36F8FBFF34F8FFEE7F0B583B024
:10361000054611B101FB00F000E0002017460C4602
:103620004830FFF79DFC064638B100903B4600F15C
:10363000480221462846FFF7D1FF304603B0F0BDCF
:10364000F0B585B0019260B1044699B9026C8AB1B7
:103650004FF03F0383F31188BFF36F8FBFF34F8F9A
:10366000FEE74FF03F0383F31188BFF36F8FBFF383
:103670004F8FFEE7022B0BD1E26B012A08D04FF0EF
:103680003F0383F31188BFF36F8FBFF34F8FFEE7C4
:103690001E460F4600F0FCFD50B9019B53B14FF0A0
:1036A0003F0383F31188BFF36F8FBFF34F8FFEE7A4
:1036B00000253AE0002538E0324639462046FFF73B
:1036C000D5FE636A4BB9A8B13B4B4FF080521A60EC
:1036D000BFF34F8FBFF36F8F0CE004F1240000F0B5
:1036E0003FFD38B1344B4FF080521A60BFF34F8F1B
:1036F000BFF36F8FFFF778FD012005B0F0BDFFF736
:1037000073FD0020F9E702A800F070FD012519E023
:10371000002384F8443021E0002384F8453023E07E
:103720002046FFF7E1FE00F009FCFFF73BFDA26B2E
:10373000E36B9A42C0D3022EBED0019B002BDED099
:10374000002DE0D0FFF750FD00F06AFBFFF72AFDE7
:1037500094F844305BB2B3F1FF3FD9D094F84530D0
:103760005BB2B3F1FF3FD7D0FFF73EFD01A902A83E
:1037700000F048FDC8B92046FFF75CFE0028CFD016
:10378000019904F1100000F0B7FC2046FFF7ACFEF1
:1037900000F0D4FB0028C8D1074B4FF080521A60CC
:1037A000BFF34F8FBFF36F8FBFE72046FFF79CFE3D
:1037B00000F0C4FB0020A0E704ED00E02DE9F84391
:1037C00060B1044699B9006C88B14FF03F0383F3B0
:1037D0001188BFF36F8FBFF34F8FFEE74FF03F03AA
:1037E00083F31188BFF36F8FBFF34F8FFEE7022B78
:1037F0000BD1E06B012808D04FF03F0383F3118811
:10380000BFF36F8FBFF34F8FFEE71F469046894689
:10381000FFF7D0FDEFF311864FF03F0383F31188DC
:10382000BFF36F8FBFF34F8FA26BE36B9A4203D34B
:10383000022F01D000200FE094F845506DB23A46B7
:1038400049462046FFF712FEB5F1FF3F08D06B1C3A
:103850005BB284F84530012086F31188BDE8F88317
:10386000636A5BB104F1240000F07AFC40B1B8F166
:10387000000F07D00120C8F80000EDE70120EBE7BA
:103880000120E9E70120E7E7F0B585B0019260B1DA
:10389000044699B9036C8BB14FF03F0383F3118851
:1038A000BFF36F8FBFF34F8FFEE74FF03F0383F3FC
:1038B0001188BFF36F8FBFF34F8FFEE70F4600F005
:1038C000E7FC50B9019B53B14FF03F0383F31188DC
:1038D000BFF36F8FBFF34F8FFEE700263EE0002659
:1038E0003CE039462046FFF7EDFD013DA563236925
:1038F00023B9FFF779FC012005B0F0BD04F11000F9
:1039000000F02EFC0028F4D0344B4FF080521A60A7
:10391000BFF34F8FBFF36F8FEBE7FFF765FC00201E
:10392000EAE702A800F062FC012621E0002384F807
:10393000443029E0002384F845302BE02046FFF78F
:10394000D3FD00F0FBFA09E02046FFF7CDFD00F0C3
:10395000F5FA2046FFF77DFD00283DD1FFF722FC58
:10396000A56B002DBDD1019B002BD6D0002ED8D049
:10397000FFF73AFC00F054FAFFF714FC94F84430D7
:103980005BB2B3F1FF3FD1D094F845305BB2B3F1F5
:10399000FF3FCFD0FFF728FC01A902A800F032FCBE
:1039A0000028D1D12046FFF754FD0028C6D0019948
:1039B00004F1240000F0A0FB2046FFF795FD00F085
:1039C000BDFA0028CAD1054B4FF080521A60BFF3F0
:1039D0004F8FBFF36F8FC1E700208DE704ED00E04C
:1039E0000023092B0CD8074A52F833200AB10133BF
:1039F000F7E7044A42F8331002EBC30358607047FC
:103A0000704700BFA856000870B504460D4616461C
:103A1000FFF7C8FB94F844305BB2B3F1FF3F0DD021
:103A200094F845305BB2B3F1FF3F0BD0FFF7DCFBFE
:103A3000A36B5BB12046FFF757FD70BD002384F8F0
:103A40004430EDE7002384F84530EFE7324629465D
:103A500004F1240000F068FBECE70000084B1B6851
:103A60001B683BB1064B1B68DB68DB685A68054B7B
:103A70001A607047034B4FF0FF321A60704700BF67
:103A8000645400083C55000810B50446006BFFF76D
:103A9000EBFA2046FFF7E8FA10BD2DE9F047824621
:103AA000894615469846089F099E0A9C9200A521C2
:103AB000206B05F000F9236B05F18042013A03EB1E
:103AC000820525F0070500231F2B09D819F80310DC
:103AD000E21882F8341019F803200AB10133F3E731
:103AE000002384F85330062F00D90627E762201DF3
:103AF000FFF79BF904F11800FFF797F92461C7F16C
:103B00000703A3616462002306E003F1140204EBDF
:103B10008202002151600133042BF6D90023A366F1
:103B200084F86C30424651462846FFF713FB20606C
:103B300006B13460BDE8F08738B5002407E004EB37
:103B4000840293000E481844FFF764F90134062CF0
:103B5000F5D90C4D2846FFF75DF90B4C2046FFF7D1
:103B600059F90A48FFF756F90948FFF753F9094888
:103B7000FFF750F9084B1D60084B1C6038BD00BFB3
:103B80006C540008105500082455000844550008DE
:103B9000705500085C55000864540008685400081B
:103BA00010B50446FFF7FEFA204A1368013313608C
:103BB0001F4B1B685BB11F4B1B686BB91C4B1B6811
:103BC000DA6AE36A9A4207D8194B1C6004E0184B82
:103BD0001C601368012B26D0174A13680133136049
:103BE000E36A164A1268934201D9144A136003EB40
:103BF00083039A00211D12481044FFF719F9FFF7BB
:103C0000F3FA0C4B1B686BB1094B1B68DA6AE36A69
:103C10009A4207D20B4B4FF080521A60BFF34F8F7E
:103C2000BFF36F8F10BDFFF787FFD5E7F85400088B
:103C30006054000858550008085500080C55000845
:103C40006C54000804ED00E00F4B1B68D3B110B5B5
:103C5000FFF7A8FA0D4BDB68DC68201DFFF70EF9B3
:103C60000B4A1368013B1360074A1368013B13605A
:103C7000FFF7BAFA2046FFF707FF034B1B68002B3C
:103C8000E6D110BD704700BFFC5400087055000815
:103C9000F854000808B5FFF7D7FF064B1B68012B47
:103CA000F9D9054B4FF080521A60BFF34F8FBFF325
:103CB0006F8FF0E76C54000804ED00E070B5044627
:103CC0000E46174B1D68174B18680430FFF7D6F8DF
:103CD000B4F1FF3F13D02C44124B1B685C60A5422B
:103CE00016D8114B18680F4B19680431FFF7ACF860
:103CF0000E4B1B68A34212D90C4B1C600FE0002E28
:103D0000E9D0084B196804310948FFF791F806E03B
:103D1000084B1868034B19680431FFF795F870BD1C
:103D20008455000860540008645400083C5500089D
:103D30005C550008685400082DE9F04385B007463B
:103D40008846154699469000FFF70AF9F8B10646ED
:103D50007020FFF705F90446A8B10663D4B100232B
:103D6000039302940D9B01930C9B00934B462A46B0
:103D700041463846FFF791FE2046FFF711FF01202C
:103D800005B0BDE8F0833046FFF76EF9E6E74FF087
:103D9000FF30F5E74FF0FF30F2E7000000B583B0E9
:103DA000194B019300230093802218491848FFF70C
:103DB000C3FF012807D0012808D0B0F1FF3F1AD077
:103DC00003B05DF804FB00F0F5FAF4E74FF03F03B1
:103DD00083F31188BFF36F8FBFF34F8F0D4B4FF0FD
:103DE000FF321A600C4B01221A600C4B00221A6041
:103DF000FFF77AFAE4E74FF03F0383F31188BFF34C
:103E00006F8FBFF34F8FFEE73855000814B80010CE
:103E1000953C00103C550008585500088455000892
:103E2000024A136801331360704700BF045500084D
:103E3000014B1868704700BF84550008F8B5344B33
:103E40001B68002B59D1334B1C6801341C60C4B96A
:103E5000314B1B681B6843B14FF03F0383F311885C
:103E6000BFF36F8FBFF34F8FFEE72B4A11682B4BC9
:103E70001868106019602A4A136801331360FFF74D
:103E8000EDFD284B1B68A3422DD900263AE0012600
:103E9000214B1B681B6843B31F4B1B68DB68DD6845
:103EA0006B689C4226D32F1D3846FEF7E7FFAB6AAE
:103EB0001BB105F11800FEF7E1FFEB6A1A4A126820
:103EC000934201D9184A136003EB83039A003946E1
:103ED00016481044FEF7ACFFEA6A154B1B68DB6A14
:103EE0009A42D4D2D4E70026D2E70E4B4FF0FF32ED
:103EF0001A6007E00B4A136004E00E4A13680133AE
:103F0000136000260C4B1B6803B101263046F8BD38
:103F100004550008845500086454000868540008DB
:103F2000405500083C5500080C5500086C5400082A
:103F300060540008005500088855000838B5334B18
:103F40001B6843B94FF03F0383F31188BFF36F8FB2
:103F5000BFF34F8FFEE7FFF725F92C4B1A68013AA4
:103F60001A601B68002B4DD1294B1B6823B9002414
:103F7000FFF73AF9204638BD0024264B1B681BB3D7
:103F8000244BDB68DC6804F11800FEF777FF251D81
:103F90002846FEF773FFE36A1F4A1268934201D96D
:103FA0001D4A136003EB83039A0029461B48104403
:103FB000FEF73EFFE26A1A4B1B68DB6A9A42DCD3CB
:103FC000184B01221A60D8E70CB1FFF747FD164BDA
:103FD0001C6854B1FFF732FF10B1124B01221A6076
:103FE000013CF7D1104B00221A600E4B1B685BB1ED
:103FF0000E4B4FF080521A60BFF34F8FBFF36F8F9D
:104000000124B5E70024B3E70024B1E70455000814
:10401000F8540008445500080C5500086C5400087A
:1040200060540008885500080055000804ED00E0C1
:104030002C4B1B681BB12C4B01221A60704710B52A
:10404000294B00221A60294B1B681B6B1A68B2F1BE
:10405000A53F03D15A68B2F1A53F10D0234B186891
:1040600019683431FFF7D4F9214B1B6803EB830146
:104070008A0020498A58A2B953B1013BF6E79A68F1
:10408000B2F1A53FEAD1DB68B3F1A53FE6D1EBE79A
:104090004FF03F0383F31188BFF36F8FBFF34F8F50
:1040A000FEE708469A00D418A10001444C686468F1
:1040B0004C601A4491000831084484420BD003EB51
:1040C000830291000B4A0A445268D168074A116082
:1040D000074A136010BD61680648142202FB030200
:1040E0005160ECE70455000888550008605400084A
:1040F0000C5500086C54000840B94FF03F0383F39F
:104100001188BFF36F8FBFF34F8FFEE710B50C46DA
:10411000044B19681831FEF797FE01212046FFF77E
:10412000CDFD10BD6054000838B540B94FF03F03D5
:1041300083F31188BFF36F8FBFF34F8FFEE70C46F9
:104140001546064A11681831FEF772FE0DB14FF0A0
:10415000FF3429462046FFF7B1FD38BD6054000802
:1041600038B5C368DC6844B94FF03F0383F3118866
:10417000BFF36F8FBFF34F8FFEE704F1180528469A
:10418000FEF77CFE134B1B68E3B9251D2846FEF79E
:1041900075FEE36A104A1268934201D90E4A136011
:1041A00003EB83039A0029460C481044FEF740FEB7
:1041B000E26A0B4B1B68DB6A9A4208D90120094B63
:1041C000186038BD29460848FEF732FEF0E70020A7
:1041D000F7E700BF045500080C5500086C540008B0
:1041E000605400088855000844550008034B1B68BC
:1041F0000360034B1B684360704700BF40550008D5
:1042000084550008F8B550B1054689B94FF03F0311
:1042100083F31188BFF36F8FBFF34F8FFEE74FF02B
:104220003F0383F31188BFF36F8FBFF34F8FFEE718
:104230000C46FEF7B7FF114B196868680A1A236825
:10424000B3F1FF3F16D02F680D4E3668B74201D04C
:10425000884211D9934203D800232360012405E04A
:104260009B1A23602846FFF7C1FF0024FEF7BCFF1E
:104270002046F8BD0024F9E70124F7E7845500083B
:1042800040550008014B01221A607047885500080C
:10429000054B1B6833B1054B1B680BB10020704701
:1042A0000220704701207047585500080455000847
:1042B000064B1A681368B3FA83F35B09036013B9FA
:1042C000D368186870470020704700BF8C550008FD
:1042D00008B54160006191420CD8D21A83699A42B4
:1042E00001D3012010E0011D094B1868FEF7ACFD59
:1042F000002009E09A4201D2994206D2011D054BE5
:104300001868FEF7A1FD002008BD0120FCE700BFF2
:10431000905500088C55000838B5FEF743FF0F4B49
:104320001B6813B1FEF760FF38BD0D4D2846FEF740
:1043300071FD0C4C2046FEF76DFD0B4B1D600B4BC9
:104340001C6000220C210A20FFF756F9034B18606D
:104350000028E7D00649FFF743FBE3E7C055000814
:1043600094550008A85500088C5500089055000881
:104370001CB800102DE9F041079C41B94FF03F03F4
:1043800083F31188BFF36F8FBFF34F8FFEE70F46A4
:1043900074B11D4616468046FFF7BEFFC4F8008084
:1043A000A761E6612562069B6362201DFEF73DFD65
:1043B000BDE8F08100B583B0FFF7AEFF0C4B1B6882
:1043C00053B10C4B019307230093002380220A4929
:1043D0000A48FFF7B1FC40B94FF03F0383F311885F
:1043E000BFF36F8FBFF34F8FFEE703B05DF804FBA1
:1043F000C0550008C455000824B80010F946001044
:104400002DE9F04182B005460E4617469846282011
:10441000FEF7A6FD044640B10190089B0093434679
:104420003A4631462846FFF7A5FF204602B0BDE8D0
:10443000F0810000C8B130B585B015460446174A72
:10444000106840B31A4601910295039405291DDCBA
:10445000FFF71EFF022811D000231A4601A90F48BA
:104460000068FFF7EDF805B030BD4FF03F0383F370
:104470001188BFF36F8FBFF34F8FFEE70023089AB9
:1044800001A906480068FFF7DBF8ECE7002301A963
:10449000FFF794F9E7E70020E5E700BFC055000803
:1044A00070B582B01A4B1B681A6852B3DB681E687D
:1044B000DC68251D2846FEF7E1FC636A2046984724
:1044C000E369012BEED1A36933449E4207D26360B6
:1044D000246129460E4B1868FEF7B6FCE2E700217E
:1044E00000910B4632462046FFF7A4FF0028D9D1A1
:1044F0004FF03F0383F31188BFF36F8FBFF34F8FEC
:10450000FEE7044A106802490860136002B070BDFB
:104510008C5500089055000838B50546FFF788FC13
:104520000446074B1B68834205D800232B60044BCD
:104530001C60204638BDFFF7B3FF01232B60F6E770
:10454000BC55000870B582B005460E46144B1B687A
:10455000DB68DC68201DFEF791FCE369012B04D0C9
:10456000636A2046984702B070BDA1692B46324667
:1045700029442046FFF7ACFE0028F1D0002100912D
:104580000B462A462046FFF755FF0028E8D14FF09A
:104590003F0383F31188BFF36F8FBFF34F8FFEE7A5
:1045A0008C55000870B582B006460C46FFF738FC03
:1045B00001A8FFF7B1FF019B1BBB05460CB9B04238
:1045C00018D22CB1114B1B681C68B4FA84F464092E
:1045D0002246711B0E4B1868FFF716FAFFF7AEFC68
:1045E00088B90C4B4FF080521A60BFF34F8FBFF366
:1045F0006F8F08E0FFF7A2FC29463046FFF7A2FFC5
:1046000001E0FFF79BFC02B070BD00BF90550008B1
:10461000C055000804ED00E030B587B0002203A9C2
:10462000344B1868FFF730F9002860D0039B002B4B
:10463000F4DB059C636913B1201DFEF71FFC02A883
:10464000FFF76AFF039B092BE8D801A252F823F079
:104650007946001079460010794600101D4600107A
:10466000C1460010E7460010794600107946001058
:104670001D460010C14600100499A5690B4602466C
:1046800029442046FFF724FE0028C7D0636A20464D
:104690009847E369012BC1D1A269002100910B4623
:1046A000049802442046FFF7C5FE0028B6D14FF01B
:1046B0003F0383F31188BFF36F8FBFF34F8FFEE784
:1046C0000499A16131B10346024601442046FFF737
:1046D000FFFDA3E74FF03F0383F31188BFF36F8F14
:1046E000BFF34F8FFEE72046FEF7BEFC96E707B00C
:1046F00030BD00BFC055000800B583B001A8FFF76A
:10470000D7FD0199FFF74EFFFFF786FFF6E7072871
:1047100011D8DFE800F004041306080A0C0E082084
:104720000DE00B200BE00C2009E00D2007E00E202F
:1047300005E00F2003E001BE082000E00A20012967
:1047400000D0704700F00700FBE700002DE9F043C0
:1047500087B00446884617461E4608238DF8083061
:1047600005148DF809508DF80A00029BADF814303D
:104770001B0C8DF81630059BADF810301B0C8DF816
:104780001230049BADF80C301B0C8DF80E3003A8D2
:1047900000F0AEF8814618B1484607B0BDE8F08396
:1047A00041463846FFF7B3FF0246EDB20E2D0BD857
:1047B000074B1B68986900EBC51000230093334634
:1047C000E1B201F021FAE7E7014B1B689869F4E7D1
:1047D0001C5700082DE9F0470446884691461E46BE
:1047E000394B33F81050431C152B04D8DBB2364A32
:1047F00032F8137000E0F3270123A340334A134239
:1048000007D1454435803388BB425BD20020BDE8E8
:10481000F087A31E112B16D8DFE803F009151D152C
:10482000150C0F1515151515151515151512DFF89D
:10483000A8A012E0DFF8A4A00FE0DFF8A4A00CE02D
:10484000DFF8A0A009E04FF4F871214802F07CFFE6
:104850004FF0000A01E0DFF890A03780BAF1000FB6
:10486000D1D0023C112C12D8DFE804F00911181144
:10487000110B0D111111111111111111110F012233
:104880000DE003220BE0102209E0022207E040F2D3
:1048900005210F4802F058FF002200E00422904555
:1048A000B1D21AF808302B4419FA83F9A6F800900F
:1048B00008F101039342A6DAD04498F801703D4410
:1048C000AFB2A0E70348A2E770B800109401080057
:1048D00050B800100000020430B8001038B80010C2
:1048E0003CB800104CB8001034B8001000207047DD
:1048F000F0B583B00446FDF73CFD06460DF1060316
:10490000A27861782078FFF765FF054670B9BDF899
:104910000630C3F3C70203F007031549895C01227F
:1049200002FA03F3194214BF1746002705B9EFB97D
:104930002DB13046FDF721FD284603B0F0BD0DF145
:104940000603A27861782078FFF744FF0546002827
:10495000EFD1BDF80630C3F3C70103F007030448E5
:1049600001229A40435C13434354E2E7014DE0E7E0
:10497000C85500080100020430B583B00446FDF7B5
:10498000F8FC05460DF10603A27861782078FFF760
:1049900021FF014660B9BDF80630C3F3C70003F03C
:1049A0000703094C01229A40235C23EA02032354A3
:1049B00021B92846FDF7E1FC03B030BD40F2772174
:1049C000024802F0C1FEF4E7C855000850B80010D4
:1049D0002DE9F04782B081460D461AB14FF0030A27
:1049E000144F1BE08A46FBE70134AFB1A04513DD4D
:1049F00004238DF804308DF80550E6B28DF806607A
:104A00000DEB0300FFF774FF0028EDD189F800508B
:104A100089F801600027E7E70135EDB237B1554568
:104A200004D8054B13F805800024DEE7384602B0B1
:104A3000BDE8F087020002042CB8001000B583B076
:104A400004238DF8043003788DF8053043788DF811
:104A5000063001A8FFF790FF03B05DF804FB0000EB
:104A600070B582B00568C5F307430E2B16D81A4AF5
:104A70001268966906EBC3160489230AE4B2EDB204
:104A80000093012322462946304601F0BDF80A2C46
:104A900008D00B2C13D0002002B070BD0E4B1B6849
:104AA0009E69E9E7072D04D8012303FA05F5B560EF
:104AB000F1E740F23131094802F046FEF4E7072DF4
:104AC00004D8012303FA05F57560E4E740F23131BB
:104AD000024802F039FEF4E71C5700089CB80010A9
:104AE00010B582B00146C0F307430E2B0CD9094B19
:104AF0001B6898690024009401230822C9B201F0C0
:104B000083F8204602B010BD024A1268906900EB9B
:104B1000C310EFE71C57000812381E2821D8DFE821
:104B200000F01E20202020202020202020202020D7
:104B30002020202020202020201023121416181AB4
:104B40001C0000207047022070470320704704209B
:104B500070470520704706207047072070470820DF
:104B6000704701BE0020704701207047012805D022
:104B7000022801D0002070470320704702207047B0
:104B80000138032809D8DFE800F0020B04060220F0
:104B90007047062070470820704701BE022070470A
:104BA00004207047814206D8411A642303FB01F1B7
:104BB000B1FBF0F07047091A642303FB01F1B1FB6C
:104BC000F0F0704708B5EFF30580103800B2FFF73A
:104BD000A3FF044B53F8203003F11C01186802F0C6
:104BE0000BF808BDF856000838B505460C460020FD
:104BF00002F03AFC084B1B681A68D3F88030D3588F
:104C00001B0E013300EB5300B0FBF3F005FB044433
:104C1000B0FBF4F038BD00BF1C57000870B586B07B
:104C20000546082422E005FB04F6002002F01CFCE7
:104C3000194B1B681A68D3F88030D3581B0E013308
:104C400000EB5300B0FBF3F000EB5600B0FBF6F0C6
:104C500021460138FFF7C8FF01462846FFF7A2FFAB
:104C600006AB234403F8140C0134E4B2102CDAD957
:104C70009DF80C100820034601E00133DBB2102B35
:104C800008D806AA1A4412F8142C8A42F5D2114602
:104C90001846F2E706B070BD1C5700082DE9F04732
:104CA00082B089464668334653F81C2B0092019324
:104CB000684601F05DFF8046F568B5F1FF3F0ED014
:104CC000C5F307430E2B05D8A84A1268926902EB78
:104CD000C31A06E0A54B1B68D3F818A001E04FF0FB
:104CE000000A7469B4F1FF3F0DD0C4F307430E2BE3
:104CF00005D89E4A1268976907EBC31704E09B4BDF
:104D00001B689F6900E00027B9F1020F00F0B68030
:104D1000B9F1080F00F0B280B9F1010F03D040469D
:104D200002B0BDE8F087B8F1000FF8D1BAF1000F7A
:104D300031D0EDB2072D60D88C4B1A689369AAEB7D
:104D40000303DB0952691B01D118032D5BD92A1F0C
:104D50004B68D200D34003F01F0386F8BC30072D08
:104D600057D80123AB40CAF80830072D57D87F4BDE
:104D70001A689369AAEB0303DB0952691B01D11876
:104D8000032D52D9043D4B68ED001F2202FA05F5B0
:104D900023EA05054D60002FC1D0E4B2072C4DD8A1
:104DA000724B1A689369FB1ADB0952691B01D1180F
:104DB000032C49D9221F4B68D200D34003F01F03B4
:104DC00086F8BD30072C45D80123A340BB60072CD3
:104DD00046D8664B1A689369FF1AFF0952693F016A
:104DE000D019032C42D9231F4268DB001F2101FA8E
:104DF00003F322EA0303436091E740F2BF215C48DA
:104E000002F0A2FC98E7D358EA00D34003F01F0356
:104E1000A3E74FF45C71564802F096FCA1E740F21C
:104E20009221534802F090FCA1E7D158ED001F20D9
:104E300000FA05F521EA0501D150ACE740F2BF21A7
:104E40004B4802F081FCABE7D358E200D34003F0BB
:104E50001F03B5E74FF45C71454802F075FCB3E7FA
:104E600040F29221424802F06FFCB2E7D159E400CF
:104E70001F23A34021EA0303D35150E7BAF1000FE7
:104E80001FD0EDB296F8BC90072D3DD839F01F0326
:104E900040D1364B1A689369AAEB0303DB095169C9
:104EA0001B01CA18032D3BD9043D5368ED001F2197
:104EB000A94023EA010309F01F0909FA05F51D437A
:104EC0005560002F3FF42BAFE4B296F8BD50072C8D
:104ED00033D835F01F0336D1244B1B689A69BF1AAB
:104EE000FF095B693F01D919032C32D9043C4B6897
:104EF000E4001F22A24023EA020305F01F0505FA81
:104F000004F41C434C600AE740F29221184802F076
:104F10001BFCBBE740F29321154802F015FCB8E7F3
:104F2000CA58ED001F20A84022EA000209F01F091C
:104F300009FA05F51543CD50C3E740F292210C481C
:104F400002F002FCC5E740F29321094802F0FCFBA5
:104F5000C2E7DA59E4001F21A14022EA010205F06C
:104F60001F0505FA04F41443DC51D8E61C57000869
:104F70009CB8001010B5044678B32379162B19D0CD
:104F800062791F4B33F91230002B0CDB03F01F0149
:104F90005B0901228A4020331A4941F82320BFF3DC
:104FA0004F8FBFF36F8F201DFFF7E6FC04F1A000C9
:104FB00002F082FEA068B0F1FF3F10D1E068B0F1CE
:104FC000FF3F0FD16069B0F1FF3F0ED12069B0F112
:104FD000FF3F0DD1237E73B110BD01BECDE700F0C0
:104FE0005DFBEBE700F05AFBECE700F057FBEDE769
:104FF00000F054FBEEE704F11900FFF71FFDEBE7AB
:10500000ECB8001000E100E02DE9F04104460E4646
:1050100017460021006801F0D7FC637EA27E032BB7
:105020001CD80BB9072A08D9012B00F0AF80022B3E
:1050300000F0B080032B11D182B9A749096891F81B
:105040006D50AB400320A840034091F86C00024033
:105050008968134343F08043C1F800343046FFF7BA
:10506000DDFD0546A06506FB00F8002002F0FCF916
:10507000994B1B681A68D3F88030D3581B0E013344
:1050800000EB5300B0FBF3F000EB5800B0FBF8F07E
:105090000138627E931EDBB2012B7FD9A37E002AEA
:1050A00040F0DD80072B00F2F880FF2800F2F88046
:1050B000894A12689168B2F87020114451F823208F
:1050C00022F47F424FEA002C1FFA8CFC42EA0C02C9
:1050D00041F823204FF000082946FFF785FD0146DF
:1050E00007B138603046FFF75DFD0A2800F2E48022
:1050F000637EA07E032B2CD80BB9072808D9012B7F
:1051000000F0DD80022B00F0DE80032B21D100BBFC
:10511000714A116891F86F20032606FA02F291F89D
:105120006C7091F86EC007FA0CFC42EA0C0291F820
:105130006DC003FA0CF306FA0CF633401343384003
:105140008A68034343F00043C2F800348B68D3F805
:10515000003494F87030002B00F0B9804FF48033A5
:10516000E26D082A40F2B58000221343013D05F0AC
:105170000F051D43236845F000751D602268136804
:1051800043F0004313604046BDE8F0810F2A7FF6EC
:1051900054AF4CE7032A7FF650AF4BE7A37E022AB9
:1051A00024D0032A52D1002B53D1B0F1807F53D2A7
:1051B000DFF824C1DCF800209168B2F876201144B1
:1051C00051F82320D2B242EA002241F82320DCF831
:1051D00000108A68B1F876100A4452F8231021F0C2
:1051E000F80142F823104FF0000875E7032B27D889
:1051F000B0F5803F27D2DFF8E0E0DEF800108A68E3
:10520000B1F874C094445CF8232022F47F0222F4A5
:105210007F42010221F07F4121F0FF010A434CF857
:105220002320DEF800108A68B1F874100A4452F89E
:10523000231021F0F80142F823104FF000084BE74B
:10524000DFF8988048E7DFF8948045E7DFF88C8046
:1052500042E7DFF888803FE7DFF880803CE7012AFB
:1052600021D10F2B22D8B0F5803F22D21A4A1168E3
:105270008A68B1F872C094445CF8232022F47F025B
:1052800022F47F42010221F07F4121F0FF010A4315
:105290004CF823204FF000081EE7DFF840801BE7A2
:1052A000DFF8388018E7DFF8348015E7DFF82C8066
:1052B00012E7DFF828800FE7DFF8248018E70F28CF
:1052C0007FF626AF1EE703287FF622AF1DE70023F7
:1052D00046E74FF4006248E71C57000801004A0007
:1052E000030059042DE9F04788B0884691469A4654
:1052F000044630B316232371012323764FF0FF3386
:10530000A360E360236163610C22B949404600F069
:10531000B4F906460C22B749484600F0AEF90746F4
:10532000002E00F06081002800F05F8173685978DA
:1053300043685A78914206D0AF4D284608B0BDE880
:10534000F08701BED6E71A889B78ADF808208DF863
:105350000A3002A8FFF7CCFA05460028EDD1029BDF
:10536000A3801B0CA37108238DF80030C8F30743FA
:105370008DF801308DF80280009BADF814301B0CC5
:105380008DF81630059BADF810301B0C8DF81230DF
:10539000049BADF80C301B0C8DF80E3003A8FFF702
:1053A000A7FA054608B9C4F80C80002D00F09C80CF
:1053B0006279924B53F8223023604DB9BAF1000F55
:1053C00000F0B78001232376BAF80030A4F8193032
:1053D000002D00F0B880002D00F0EB80002D00F0D3
:1053E000ED80002D79D104F15406854F0FCF0FC603
:1053F0000FCF0FC60FCF0FC697E80F0086E80F003C
:10540000109B002B00F0DF80109B1B68E365109B56
:105410001879FFF7B5FB84F86100109B187AFFF745
:10542000A5FB84F8620004F11C06324604F1540125
:10543000206801F0F7F8109BD96829B13346109A1B
:105440001269206801F0CCFA2368C4F89830C4F8D7
:105450009C406C4BC4F8A030012384F8A430002396
:10546000C4F8A83004F19802C4F8AC20C4F8B030F5
:10547000C4F8B43004F1A00002F0D6FB00B9624DCC
:105480000023C4F8C030C4F8C430C4F89430627942
:105490005E4B43F8224063795D4E36F91330ADF828
:1054A0000030072301935B49684602F0EFF8637907
:1054B00036F91330002B07DB03F01F015B090122D3
:1054C0008A40554941F82320237E002B00F0838039
:1054D0002268136843F000431360002D3FF42DAFA2
:1054E0002046FFF747FD28E708238DF80030C9F371
:1054F00007438DF801308DF80290009BADF81C3009
:105500001B0C8DF81E30079BADF818301B0C8DF866
:105510001A30069BADF80C301B0C8DF80E3003A82A
:10552000FFF7E6F9054600287FF442AFC4F808907B
:105530003EE7002323760122114604F11900FFF70C
:1055400047FA054644E76279637EA07E33490968DD
:1055500091F83D50AA4224D2032B24D80BB9072836
:1055600006D9012B17D0022B18D0032B1DD1F0B96F
:1055700091F86DC003FA0CF3032505FA0CF52B40E6
:1055800091F86C5028408968034302F5407241F855
:10559000223000251FE70F28EAD9E4E70328E7D9DE
:1055A000E3E71F4D17E71E4D15E71D4D13E71C4D93
:1055B00011E73846FFF754FA05460FE73046FFF784
:1055C0004FFA05460DE704F11C0204F1540120686E
:1055D00001F028F838E700224FF4E1312046FFF7C8
:1055E00013FD054679E7044DA7E6034DA5E600BF88
:1055F000F0B9001060B9001000005A04C8B80010DB
:1056000000B900109D4C001001005A04F856000823
:10561000ECB80010C54B001000E100E01C5700087A
:1056200001004A00F8B506460F4615460368D3F850
:105630004033144602E03368D3F84033B3F1FF3F00
:1056400007D1002DF7D03CB1012002F059F8013C00
:10565000F1E73B700020F8BD0048FCE702005A0467
:1056600038B505460C46002003E02146286800F0C6
:10567000A2FE0028F9D0002038BD70B406460023F1
:10568000934208D203EB4305AC0008190C59B4420D
:1056900002D00133F4E7002070BC704710B584B02D
:1056A0000446FFF71DFA00B101BE08238DF8003053
:1056B000C4F307438DF801308DF80240009BADF82C
:1056C0000C301B0C8DF80E30039BADF808301B0C12
:1056D0008DF80A30029BADF804301B0C8DF80630B3
:1056E00001A8FFF749F904B010BD0000044A136F88
:1056F00043F010031367034B00221A60704700BF8A
:1057000000F03D4004560008014B1860704700BF90
:105710001C5700081D4B98422FD00ED91C4B9842A5
:1057200031D019D91B4B984223D00133984222D053
:10573000023B98421BD01848704740281FD006D91A
:1057400080281ED0B0F5807FF5D11048704760B139
:105750001028F0D111487047B0F1204F05D0104B00
:105760009842E8D14FF4A0007047002070470D48E0
:1057700070470D4870470D487047044870470C4803
:1057800070470C4870474FF4A40070470600520061
:10579000010000F0040000F0FF0052000100500082
:1057A000090000A001005200020052000300520054
:1057B000020050000500520038B5134B1B6893F8E7
:1057C0002E30012B17D9104B1D682B6AB5F8AC2071
:1057D00013442C46D5F8B020D358002B11DB0B4BCB
:1057E0001868FFF797FF6B6801229A6063689B68EF
:1057F000002BFBD138BD4FF4E971054801F0A4FF3F
:10580000E1E70448F6E700BF1C570008E855000828
:1058100034BB0010020050001A4B186028B102235C
:105820000370FF23437000234380174B1B6893F8DA
:105830004C2002B9704700B583B0B3F93630ADF8EB
:105840000030002301931149684601F01FFFBDF9A4
:105850000030002B07DB03F01F015B0901228A40A7
:105860000B4941F82320084B1B6893F84D3013B9BE
:1058700003B05DF804FB02220649012000F0C2FBE0
:10588000F6E700BFF85500081C570008112500086E
:1058900000E100E0CD25000808B50248FFF7BCFF95
:1058A00008BD00BFF8290008002800F0A0812DE9FC
:1058B000F0410646002A00F09C8114460D46072957
:1058C00000F200812368012B00F20181636833F04C
:1058D0000F0340F00181237A33F01F0340F0018170
:1058E000E368032B00F202812369012B00F203819C
:1058F0006369012B00F20481A369012B00F2058189
:10590000E369032B00F20681236A012B00F2078171
:10591000636A012B00F20881A36A012B00F209815E
:10592000E36A032B00F20A81236B072B00F20B8141
:105930002768072D00F20C81012F00F20F81002F44
:1059400000F012810123AB40B3606768072D00F2BD
:105950000F8137F00F0340F01181A800A64B1B68A0
:1059600093F879108B590F22824023EA020207F044
:105970000F03834013438B51277A072D00F20481D4
:1059800037F01F0340F006819B4B1A689369F31AA6
:10599000DB0952691B01D018032D40F201812B1F36
:1059A0004168DA001F23934021EA030107F01F0337
:1059B00093400B434360E768082D00F20081032FFA
:1059C00000F2038168008C4B1B6893F878108B59A8
:1059D0000322824023EA020207F0030383401343B9
:1059E0008B512769082D00F2F680012F04D940F26F
:1059F0007461824801F0A8FEB3690122AA4023EA3B
:105A0000020307F00107AF401F43B761D4F81480C9
:105A1000072D00F2E680B8F1010F04D940F20E41E3
:105A2000764801F091FE74490B6893F87AC05CF8EF
:105A300006000127AF4020EA070008F00102AA4053
:105A400002434CF806206A0002F1100C032303FA0B
:105A50000CF31F430B6893F87B00835923EA070775
:105A6000A36903F00103AB403B43E26902F0030288
:105A700002FA0CF2134383510B6893F87C20B1585F
:105A800021F0FF01236A03F00103606A400000F087
:105A900002000343A06A800000F004000343E06AB0
:105AA000C00000F018000343206B4001C0B2034364
:105AB000AD0005F47E7503FA05F50D43B5500020E1
:105AC000BDE8F0814F214E4801F03EFEFAE650213C
:105AD0004B4801F039FEF9E65121494801F034FE06
:105AE000F9E65221464801F02FFEF9E653214448D9
:105AF00001F02AFEF8E65421414801F025FEF7E6C0
:105B000055213F4801F020FEF6E656213C4801F0C1
:105B10001BFEF5E657213A4801F016FEF4E658213F
:105B2000374801F011FEF3E65921354801F00CFE2B
:105B3000F2E65A21324801F007FEF1E65B213048D7
:105B400001F002FEF0E65C212D4801F0FDFDEFE6DC
:105B500040F23131294801F0F7FDEDE640F23231F3
:105B6000264801F0F1FDEAE60123AB407360ECE664
:105B700040F2CE31214801F0E7FDEAE640F2CF31B4
:105B80001E4801F0E1FDE8E640F292211B4801F0D9
:105B9000DBFDF5E640F29321184801F0D5FDF3E670
:105BA000D1584FEAC50C1F2000FA0CF021EA000181
:105BB00007F01F0707FA0CF70F43D750FBE640F238
:105BC000F2610E4801F0C0FDF9E640F2F3610B48C6
:105BD00001F0BAFDF6E640F27361084801F0B4FD49
:105BE00003E740F20D41054801F0AEFD13E705481B
:105BF0007047044864E700BF1C5700089CB80010B9
:105C000064BB001001005A002DE9F04104460D4626
:105C1000174698469DF8186007293FD837F00F03BC
:105C200041D1B8F1010F43D836F01F0345D12368A5
:105C30000122AA4023EA020208F00103AB40134309
:105C400023602D4B1B6893F879100B59A8000F2285
:105C5000824023EA020307F00F0787401F430F51DA
:105C6000072D2FD836F01F0332D1234B1B689A69BA
:105C7000A41AE4095B6924011919032D2ED9043DE6
:105C80004B68ED001F22AA4023EA020306F01F061C
:105C900006FA05F51D434D60BDE8F081E321174884
:105CA00001F052FDBAE7E421144801F04DFDB8E7D8
:105CB000E521124801F048FDB6E7E6210F4801F062
:105CC00043FDB4E740F292210D4801F03DFDC9E7E4
:105CD00040F293210A4801F037FDC6E71A59ED005A
:105CE0001F21A94022EA010206F01F0606FA05F567
:105CF00015431D51D0E700BF1C57000864BB0010BE
:105D00009CB8001038B50C4B1B68D3F8B0301B584A
:105D1000002B0EDA0C4605460B0C1B041BB9A4B273
:105D20006C60002038BD4FF43971044801F00CFD5F
:105D3000F5E70348F6E700BF1C57000834BB001026
:105D400001008A0038B50368002B0FDA0C460546BF
:105D5000C2600B0C1B041BB9A4B2AC60002038BDA0
:105D600040F2CA21024801F0EFFCF5E70148F6E7EE
:105D700034BB001001008A0038B504460D4651B10D
:105D8000084B1B68D3F8B0301B59002B08DAE368C6
:105D90002B60002038BDA321034801F0D5FCEFE7BC
:105DA0000248F7E71C5700088CBB001001008A006E
:105DB000034B1B6803B17047014B1860FBE700BF42
:105DC000FC5500082DE9F8430446884691461E46D6
:105DD000089F2F4B1B68002B3DD02D4B1B682C20A0
:105DE00000FB04F01C18F5B21D50C6F307236360D6
:105DF000360CA660274B1B6893F82E309D422FD29D
:105E0000244B1B681A6AB3F8AC1001FB0525256109
:105E1000666893F82F309E4228D21E4B1B681D6A7D
:105E2000803605EB46156561A668330C1B041BBB69
:105E3000330C1B0433BBB3B243EA0646AE60C4F86E
:105E40001C90C4F820800023A36117B1B7F900307B
:105E5000A381BDE8F883BF210F4801F075FCBCE7C2
:105E60004FF4E9710D4801F06FFCC9E74FF4F77189
:105E70000A4801F069FCD0E740F20D21074801F023
:105E800063FCD5E740F20E21044801F05DFCD2E747
:105E9000FC5500081C570008B8BB001034BB0010AC
:105EA000F0B58FB0044600283FD0A369072B41D836
:105EB000E36A002B43D0236B002B45D007AD04F1E0
:105EC00014060FCE0FC537682F6002AD26460FCEE1
:105ED0000FC533682B601F4B1B689B8E079A1344BA
:105EE000ADF83030089B0D93A26AE16A0CAD0095C5
:105EF0003B460A98FFF766FF00210091069B0A4681
:105F00000598FFF75FFF216B284601F0BFFBBDF945
:105F10003030002B07DB03F01F015B0901228A40B0
:105F20000D4941F823200FB0F0BD5C210B4801F072
:105F30000BFCBAE76021094801F006FCB8E76221D2
:105F4000064801F001FCB6E76321044801F0FCFBC0
:105F5000B4E700BF1C57000800E100E0B8BB001028
:105F6000F8B506460F461D46144642B3204B1B6843
:105F70005BB31F4B1B682C2101FB063001FB073173
:105F80004B68012202FA03F31B04466802FA06F684
:105F9000026932B38F6937BB1268002A25DA22887A
:105FA000134323600369DC6001238B614D62046944
:105FB000330C1B047BB9B6B2A6600020F8BD40F2DA
:105FC00007110C4801F0C0FBD0E74FF48471094879
:105FD00001F0BAFBCDE740F2CA21074801F0B4FB5B
:105FE000E9E70648EAE70648E8E70548E6E700BFCC
:105FF000FC550008B8BB001034BB001004028A0036
:1060000007028A0070B504460E4615460F4B1B6802
:1060100073B10E4B1B682C2202FB0434236A6BB154
:10602000E369AB4210D9236A43F82560002070BDB4
:106030004FF4B471064801F087FBEAE74FF4B671FC
:10604000034801F081FBEBE70248F0E7FC5500084C
:10605000B8BB00100A028A0070B582B00023019319
:10606000044680B12369A3B16369C3B1236AE3B174
:106070006369DD682A0C1ED1ADB2002D3DD1636984
:106080001B6802B070BD40F2DB11244801F05CFBDC
:10609000E8E74FF4EE71214801F056FBE4E740F2E7
:1060A000DD111E4801F050FBE0E74FF4EF711B4893
:1060B00001F04AFBDCE712041A601B682069184BE8
:1060C0001B68D3F8B0301B58002BD5DA01A9FFF7B5
:1060D00053FE60B9019803681E0CDBB2E2699A4274
:1060E00006D9226A52F8233013B1984700E00026FF
:1060F00031462069FFF706FEBEE763691D601B6835
:10610000636A2BB19847002363620023A361B6E75B
:10611000A36A002BF9D09847F7E700BFB8BB00107F
:106120001C57000810B50446084B1B683BB1074BD1
:106130001B682C2000FB0430FFF78EFF10BD40F2DF
:10614000BB11034801F000FBF1E700BFFC5500085C
:10615000B8BB0010254B1B6893F82E3083423DD905
:1061600000293DD00B6813F01F0F3BD170B50D46D1
:1061700004461E4B1B6893F82E30984222D21B4BCC
:106180001B68186AB3F8AC3003FB0404184E346083
:106190002A68D2080021686802F08DFD002120469F
:1061A000FFF7B0FD34689DB12A4600212046FFF775
:1061B000C9FDC8B900210E4B1868FFF7A3FDA0B1B7
:1061C0000C4812E04FF4E9710B4801F0BDFAD6E734
:1061D00040F2A231084801F0B7FAE5E707487047F6
:1061E0000648704705487047024870BD1C570008B4
:1061F0000056000801018A0034BB001003018A0028
:1062000010B5044613464AB10BB311B3124A1160DC
:10621000536011462046FFF79DFF10BD0029F3D1C2
:106220000E4B1B6893F82E3098420AD20B4B1B681A
:106230001A6AB3F8AC3003FB0424094B1C6000203D
:10624000EBE74FF4E971074801F07EFAEEE7064804
:10625000E3E70548E1E700BFFC2900081C570008F8
:106260000056000834BB001003018A002DE9F041FC
:10627000194B1B68DD682B6883422BD90C464609F5
:1062800000F01F00012303FA00F851B10027124B60
:1062900018680368002B08DB104DBCB12846BDE828
:1062A000F081FCF766F80746F1E76A6852F8263095
:1062B00013EA080F08D023EA080342F82630002525
:1062C0000021FFF71FFDE8E7054DF9E73846FCF729
:1062D00054F8E3E7034DE1E70056000803018800A6
:1062E0000201880004018A000B4B1B68DB681A68F6
:1062F00082420ED9410900F01F00012202FA00F08B
:106300005B6853F82130034201D1044870470448C8
:1063100070470448704700BF00560008000188001D
:106320000101880004018A0010B504460A4B1B686D
:106330005B6CC34013F0010F08D0074B1B681B694F
:106340001034A402185900F00F0010BDC8210348F2
:1063500001F0FAF9F1E700BF1C570008E4BB001098
:1063600010B4D0F8003303F00F03072B0AD9002331
:106370000FE0D0F84043CC5401339342F9D35DF899
:10638000044B70470023F8E7D0F8404321F813404E
:1063900001339342F8D3F2E710B51446D0F808332E
:1063A000C3F308039A4204D22246FFF7D9FF2046DE
:1063B00010BD1C46F8E7036813F4006F0AD0802272
:1063C000D0F80832C3F30803934205D0C0F8401256
:1063D000012070474022F3E70020704710B4D0F846
:1063E000003203F00F03072B0AD900230FE0CC5C27
:1063F000C0F8404201339342F9D35DF8044B704733
:106400000023F8E731F81340C0F8404201339342CB
:10641000F8D3F2E710B51446036813F4006F0CD0FC
:106420008023D0F80822C2F308029B1AA34206D99F
:106430002246FFF7D3FF204610BD4023F1E71C465C
:10644000F6E700002DE9F84305460C46036813F40F
:10645000006F13D04FF08008D5F8007207F00F07D7
:10646000A66A012E0DD8D5F80832C3F30803984563
:1064700002D0A36A012B1FD0BDE8F8834FF040087B
:10648000EAE7D4F82490E662013EB9F1000F00D0AB
:1064900026B940F21D51224801F056F932464946CC
:1064A0002846FFF7B7FFA36A1B1AA362072F00D97C
:1064B000400048446062D6E70023A362072F26D835
:1064C000636A1E78FBF755FFC5F840624FF400730E
:1064D000C5F8803FD5F8803FFBF74FFFD5F8883FE0
:1064E00023F4007222F0010242F4007623F4EE63FA
:1064F00023F0030373B9C5F8886F236843F00203E0
:106500002360236B002BB7D001209847B4E7636A60
:106510001E88D7E740F2EA41024801F015F9EAE7A0
:1065200038BC001068BC00102DE9F04105460C464F
:10653000036813F4006F3BD080267608A769D4F86F
:106540001C8017B1B8F1000F04D140F272413348FA
:1065500001F0FAF8424639462846FFF71DFF236A44
:1065600003442362E3691B1AE3618BBBA3685BB33B
:10657000E368B3421ED3013E2B6813F4006F1BD0B7
:1065800080239E421AD2D5F8043323F0FF03F6B2DB
:106590001E43C5F804630123C5F8C83F636823F0B0
:1065A00001036360236B0BB104209847BDE8F081C1
:1065B0004026C2E75E1EDFE74023E2E74FF450715A
:1065C000174801F0C1F8DEE70023C5F8C83FE5E74A
:1065D000A269D5F8001301F00F01072900D9400086
:1065E0001044A061B342E1D25C1E2B6813F4006F2B
:1065F0000BD080239C420AD2D5F8042322F0FF025C
:10660000E3B21343C5F80433D0E74023F2E74FF475
:106610005071034801F098F8EEE700BF38BC001055
:1066200068BC0010002800F0C48170B50546002940
:1066300000F0C18116460C460B78022B20D8637BF4
:10664000023BDBB2062B20D8A37B1BB1022B01D06F
:10665000032B1FD194F82130012B20D894F8283037
:10666000012B21D82378012B23D9A37F002B00F005
:10667000BC806368013B062B00F2B98000231EE05A
:106680004921974801F060F8D9E74A21944801F080
:106690005BF8D9E74B21924801F056F8DAE74C2134
:1066A0008F4801F051F8D9E74D218D4801F04CF8A1
:1066B000D8E76368083B082B94BF00230123002B15
:1066C00040F09780A368053B042B00F29780636934
:1066D000FF2B00F29880A369FF2B00F29980A37C26
:1066E0004BB123781BB9A368092B00F09680542185
:1066F0007B4801F029F8636B23F4366323F00D0324
:10670000002B40F08F80E36B23F4EE6323F0030350
:10671000002B40F08C802378022B00F08D80626883
:10672000013A237F002B00F08D804FF48033A16865
:10673000082900F289804FF400610B4302F00F0238
:10674000134343F000732B60236B2A6812F4006F2D
:106750007CD0802293427BD2A36B2A6812F4006F14
:106760007BD0802293427AD2636A2A6812F4006F47
:106770007AD08022934279D223781B0603F04073AB
:106780002B64637F002B76D04023A27C002A74D038
:106790004FF480621343227C002A70D04FF4807241
:1067A0001343627C002A6CD04FF400721343E26AF8
:1067B000013A120402F470221343627B013A02F0A0
:1067C00007021343A27B120102F030021343AB64B1
:1067D000237B002B57D04FF48073E27B002A57D1E4
:1067E0002278022A51D0002254E0002367E70123D7
:1067F00065E74F213A4800F0A7FF63E7502138488A
:1068000000F0A2FF63E75121354800F09DFF62E7E9
